{"abi":[{"type":"constructor","inputs":[],"stateMutability":"nonpayable"},{"type":"function","name":"depositToThePool","inputs":[],"outputs":[],"stateMutability":"payable"},{"type":"function","name":"participators","inputs":[{"name":"","type":"uint256","internalType":"uint256"}],"outputs":[{"name":"","type":"address","internalType":"address"}],"stateMutability":"view"},{"type":"function","name":"pickTheWinner","inputs":[],"outputs":[],"stateMutability":"nonpayable"}],"bytecode":{"object":"0x6080604052348015600f57600080fd5b50600180546001600160a01b031916331790556103a7806100316000396000f3fe6080604052600436106100345760003560e01c80638f67136914610039578063c521001114610075578063f7defe8c1461007f575b600080fd5b34801561004557600080fd5b50610059610054366004610320565b610094565b6040516001600160a01b03909116815260200160405180910390f35b61007d6100be565b005b34801561008b57600080fd5b5061007d610114565b600081815481106100a457600080fd5b6000918252602090912001546001600160a01b0316905081565b67016345785d8a00003410156100d357600080fd5b600080546001810182559080527f290decd9548b62a8d60345a988386fc84ba6bc95484008f6362f93160ef3e5630180546001600160a01b03191633179055565b6001546001600160a01b031633146101735760405162461bcd60e51b815260206004820152601a60248201527f5265736572766520666f7220746865206f776e6572206f6e6c7900000000000060448201526064015b60405180910390fd5b600047116101c35760405162461bcd60e51b815260206004820152601c60248201527f4e6f7420656e6f756768206d6f6e657920696e2074686520706f6f6c00000000604482015260640161016a565b600080546040805144602080830191909152428284015260608083018590528351808403909101815260809092019092528051910120919081906102079084610339565b815481106102175761021761035b565b60009182526020822001546040516001600160a01b039091169250829047908381818185875af1925050503d806000811461026e576040519150601f19603f3d011682016040523d82523d6000602084013e610273565b606091505b50509050806102d65760405162461bcd60e51b815260206004820152602960248201527f556e61626c6520746f20736f207472616e73666572206d6f6e657920746f20746044820152683432903bb4b73732b960b91b606482015260840161016a565b6102e16000806102e6565b505050565b50805460008255906000526020600020908101906103049190610307565b50565b5b8082111561031c5760008155600101610308565b5090565b60006020828403121561033257600080fd5b5035919050565b60008261035657634e487b7160e01b600052601260045260246000fd5b500690565b634e487b7160e01b600052603260045260246000fdfea26469706673582212200fc1b578b2ad4e4d2db88cbb809a926c3c4755388d7b6ef54006e44f071dfde164736f6c63430008190033","linkReferences":{}},"methodIdentifiers":{"depositToThePool()":"c5210011","participators(uint256)":"8f671369","pickTheWinner()":"f7defe8c"},"id":1}